:1000000071C0000079C0000077C0000075C000001A
:1000100073C0000071C000006FC000006DC0000020
:100020006BC0000069C0000067C0000065C0000030
:1000300063C0000061C000005FC000005DC0000040
:100040005BC0000059C0000057C0000055C0000050
:1000500053C0000051C000004FC000004DC0000060
:100060004BC0000049C0000047C0000045C0000070
:1000700043C0000041C000003FC000003DC0000080
:100080003BC0000039C0000037C0000035C0000090
:1000900033C0000031C000002FC000002DC00000A0
:1000A0002BC0000029C0000027C0000025C00000B0
:1000B00023C0000021C000001FC000001DC00000C0
:1000C0001BC0000019C0000017C0000015C00000D0
:1000D00013C0000011C000000FC000000DC00000E0
:1000E0000BC0000011241FBECFEFD1E2DEBFCDBF99
:1000F00000E00CBF68D09CC083CF0F93CF93DF93F9
:10010000CDB7DEB72D970FB6F894DEBF0FBECDBFCB
:100110009C838B837E836D834F83288709878D81A2
:100120009E819C01442737FD4095542F80E492E442
:10013000AFE0B0E0BC01CD0159D0DA01C9010197AF
:100140009A83898384EC90E029813A81FC01318390
:10015000208381EC90E028E1FC01208382EC90E098
:100160003F812885322B2985232BFC0120832D9666
:100170000FB6F894DEBF0FBECDBFDF91CF910F91C8
:100180000895CF93DF9300D0CDB7DEB79A838983EC
:100190006B83000080EC90E0FC018081882F90E070
:1001A0008072992721E0009709F020E0222391F73F
:1001B00086EC90E02B81FC0120830F900F900F9034
:1001C000DF91CF9108950F93CF93DF931F92CDB717
:1001D000DEB700E020E046E060E875E2CE0101967F
:1001E0008CDF61E6CE010196CCDFFBCFA1E21A2EB7
:1001F000AA1BBB1BFD010DC0AA1FBB1FEE1FFF1FCB
:10020000A217B307E407F50720F0A21BB30BE40B1A
:10021000F50B661F771F881F991F1A9469F7609561
:100220007095809590959B01AC01BD01CF0108951B
:04023000F894FFCF70
:00000001FF
