:10000000B9C00000E5C00000E3C00000E1C000008E
:10001000DFC00000DDC00000DBC00000D9C0000070
:10002000D7C00000D5C00000D3C00000D1C0000080
:10003000CFC00000CDC00000CBC00000C9C0000090
:10004000C7C00000C5C00000C3C00000C1C00000A0
:10005000BFC00000BDC00000BBC00000B9C00000B0
:10006000B7C00000B5C00000B3C00000B1C00000C0
:10007000AFC00000ADC00000ABC00000A9C00000D0
:10008000A7C00000A5C00000A3C00000A1C00000E0
:100090009FC000009DC000009BC0000099C00000F0
:1000A00097C0000095C0000093C0000091C0000000
:1000B0008FC000008DC000008BC0000089C0000010
:1000C00087C0000085C0000083C0000081C0000020
:1000D0007FC000007DC000007BC0000079C0000030
:1000E00077C00000010101010201030303030000C6
:1000F00000000404030305050505060606060606BA
:100100000606070707070707070705020202080890
:100110000808080808080000000009090909090979
:1001200009090A0A0A0A0A0A0A0A01021020200812
:100130000810204010204080020102010804020142
:1001400001020408102040808040201008040201B1
:10015000800402018040201008040201080402010A
:100160000102040810204080010204081020408091
:10017000CD03D90311241FBECFEFD1E2DEBFCDBF27
:1001800000E00CBF12E0A0E0B2E0ECE0FAE000E03A
:100190000BBF02C007900D92A631B107D9F712E04C
:1001A000A6E1B2E001C01D92A532B107E1F711E06E
:1001B000C2E7D1E000E005C022970109FE010BBFB4
:1001C00004D3C037D10780E00807B1F713D10DC4BD
:1001D00017CFCF93DF93CDB7DEB72A970FB6F8943A
:1001E000DEBF0FBECDBF98878F8369874A87898519
:1001F000882F90E0865D9E4F9A83898389819A81BA
:10020000FC0184918B838F8198852B81FC01208355
:100210008985882F90E08C519F4F9D838C838C81A2
:100220009D81FC0184918E838E81882F90E0880FC0
:10023000991F80509E4FFC01208131818F819885CC
:10024000FC013283218321E08A85882309F420E0A0
:100250008F819885FC0130818F819885FC01818197
:100260009281422F632F59D02A960FB6F894DEBFA1
:100270000FBECDBFDF91CF910895CF93DF931F9233
:100280001F92CDB7DEB79A8389830F900F90DF91CD
:10029000CF910895CF93DF9300D0CDB7DEB79A8387
:1002A00089836B8389819A81FC01208189819A816C
:1002B000FC01818192814B81622F5CD00F900F9065
:1002C0000F90DF91CF910895CF93DF931F921F92EC
:1002D000CDB7DEB79A83898389819A8160E0DADFBE
:1002E0000F900F90DF91CF910895CF93DF931F92DE
:1002F0001F92CDB7DEB79A83898389819A81FC01E9
:10030000208189819A81FC0181819281622F5FD055
:100310000F900F90DF91CF910895CF93DF9300D08E
:100320001F92CDB7DEB79A8389836B834C838C8110
:10033000882361F089819A81FC0191818B81292F29
:10034000282B89819A81FC0121830DC089819A81A2
:10035000FC018181982F8B8180958923282F8981A9
:100360009A81FC0121830F900F900F900F90DF91E5
:10037000CF910895CF93DF9300D01F92CDB7DEB712
:100380009A8389836B834C838C81882361F0898174
:100390009A81FC0192818B81292F282B89819A8156
:1003A000FC0122830DC089819A81FC018281982FF2
:1003B0008B8180958923282F89819A81FC01228352
:1003C0000F900F900F900F90DF91CF910895CF93E2
:1003D000DF9300D0CDB7DEB79A8389836B838981A1
:1003E0009A812B81FC0120830F900F900F90DF9159
:1003F000CF910895CF93DF93CDB7DEB7AA970FB60D
:10040000F894DEBF0FBECDBF81EC90E0FC011082FE
:1004100061E086E192E03EDF61E089E192E03ADF6F
:1004200082E292E051DF8FE192E04EDF8CE192E0D8
:100430004BDF80E090E0AAE7B4E489839A83AB8342
:10044000BC8320E030E04AE755E469817A818B8102
:100450009C8140D2DC01CB018D839E83AF83B88722
:1004600020E030E040E85FE36D817E818F819885F8
:10047000B0D188232CF481E090E09A8789873BC033
:1004800020E03FEF4FE757E46D817E818F819885B3
:100490001DD218163CF520E030E040E251E46981BD
:1004A0007A818B819C8116D2DC01CB01BC01CD010C
:1004B00094D1DC01CB019A8789870FC080E991E054
:1004C0009C878B878B859C850197F1F79C878B8711
:1004D00089859A8501979A87898789859A85009762
:1004E00069F713C06D817E818F81988576D1DC019B
:1004F000CB019A87898789859A859E878D878D8587
:100500009E850197F1F79E878D8786E192E0DCDE7C
:1005100089E192E0D9DE61E082E292E0BBDE61E057
:100520008FE192E0B7DE61E08CE192E0B3DE80E043
:1005300090E0AAE7B4E48F87988BA98BBA8B20E070
:1005400030E04AE755E46F85788989899A89C2D174
:10055000DC01CB018B8B9C8BAD8BBE8B20E030E024
:1005600040E85FE36B897C898D899E8932D188233D
:100570002CF481E090E0988F8F8B3BC020E03FEF20
:100580004FE757E46B897C898D899E899FD1181626
:100590003CF520E030E040E251E46F8578898989BC
:1005A0009A8998D1DC01CB01BC01CD0116D1DC01C7
:1005B000CB01988F8F8B0FC080E991E09A8F898F44
:1005C000898D9A8D0197F1F79A8F898F8F89988DF0
:1005D0000197988F8F8B8F89988D009769F713C03B
:1005E0006B897C898D899E89F8D0DC01CB01988F3D
:1005F0008F8B8F89988D9C8F8B8F8B8D9C8D019786
:10060000F1F79C8F8B8F86E192E06FDE89E192E0BB
:100610006CDE82E292E069DE8FE192E066DE8CE1E0
:1006200092E063DE80E090E0AAE7B4E48D8F9E8FD5
:10063000AF8FB8A320E030E04AE755E46D8D7E8DA2
:100640008F8D98A147D1DC01CB0189A39AA3ABA3DD
:10065000BCA320E030E040E85FE369A17AA18BA170
:100660009CA1B7D088232CF481E090E09EA38DA3B9
:100670003BC020E03FEF4FE757E469A17AA18BA18F
:100680009CA124D118163CF520E030E040E251E472
:100690006D8D7E8D8F8D98A11DD1DC01CB01BC01AC
:1006A000CD019BD0DC01CB019EA38DA30FC080E9BF
:1006B00091E098A78FA38FA198A50197F1F798A72C
:1006C0008FA38DA19EA101979EA38DA38DA19EA115
:1006D000009769F798CF69A17AA18BA19CA17DD0E1
:1006E000DC01CB019EA38DA38DA19EA19AA789A712
:1006F00089A59AA50197F1F79AA789A784CFCF93E7
:10070000DF9300D01F92CDB7DEB79A8389837C83B5
:100710006B8389819A8181309105F9F48B819C8169
:100720008F3F2FEF9207C9F441E060E086E192E04D
:1007300050DD41E061E089E192E04BDD41E06DE0B8
:100740008CE192E046DD41E064E08FE192E041DD42
:1007500041E066E082E292E03CDD89819A81009787
:10076000A9F48B819C818F3F2FEF920779F482E26D
:1007700092E083DD8FE192E080DD8CE192E07DDD2F
:1007800089E192E07ADD86E192E077DD0F900F90CB
:100790000F900F90DF91CF910895CF93DF93CDB756
:1007A000DEB76FEF7FEF81E090E0A9DFDF91CF91BF
:1007B0000895CF93DF93CDB7DEB76FEF7FEF80E083
:1007C00090E09DDFDF91CF9108950790F691E02DA5
:1007D00019942FD008F481E0089557D088F09F57DE
:1007E00090F0B92F9927B751A0F0D1F0660F771F7D
:1007F000881F991F1AF0BA95C9F712C0B13081F05D
:100800005ED0B1E008955BC0672F782F8827B85F6E
:1008100039F0B93FCCF3869577956795B395D9F7BD
:100820003EF490958095709561957F4F8F4F9F4FC7
:100830000895990F0008550FAA0BE0E8FEEF161671
:100840001706E807F907C0F012161306E407F507C4
:1008500098F0621B730B840B950B39F40A2661F038
:10086000232B242B252B21F408950A2609F4A140DB
:10087000A6958FEF811D811D089557FD9058440F57
:10088000551F59F05F3F71F04795880F97FB991FEF
:1008900061F09F3F79F087950895121613061406AC
:1008A000551FF2CF4695F1DF08C016161706180639
:1008B000991FF1CF86957105610508940895E89414
:1008C000BB2766277727CB0197F90895B2DF08F495
:1008D0008FEF08950BD078C069D028F06ED018F053
:1008E000952309F05AC05FC01124EACFC6DFA0F3F8
:1008F000959FD1F3950F50E0551F629FF001729FB5
:10090000BB27F00DB11D639FAA27F00DB11DAA1FD3
:10091000649F6627B00DA11D661F829F2227B00D20
:10092000A11D621F739FB00DA11D621F839FA00DAB
:10093000611D221F749F3327A00D611D231F849FFB
:10094000600D211D822F762F6A2F11249F57504052
:100950008AF0E1F088234AF0EE0FFF1FBB1F661FED
:10096000771F881F91505040A9F79E3F510570F0A6
:1009700014C0A6CF5F3FECF3983EDCF386957795E5
:100980006795B795F795E7959F5FC1F7FE2B880FA1
:10099000911D9695879597F9089597F99F6780E837
:1009A00070E060E008959FEF80EC089500240A94C1
:1009B0001616170618060906089500240A9412163A
:1009C0001306140605060895092E0394000C11F46D
:1009D000882352F0BB0F40F4BF2B11F460FF04C01A
:1009E0006F5F7F4F8F4F9F4F089511E0C2E7D1E0B7
:1009F00000E005C022970109FE010BBFE6DEC43707
:0C0A0000D10780E00807B1F7F894FFCFA1
:100A0C0023002C00320000010301290020002600E5
:060A1C0009012F00060194
:00000001FF
